{
  "_format": "hh3-artifact-1",
  "contractName": "ArcRouter",
  "sourceName": "contracts/ArcRouter.sol",
  "abi": [
    {
      "inputs": [
        {
          "internalType": "address",
          "name": "_eurc",
          "type": "address"
        }
      ],
      "stateMutability": "nonpayable",
      "type": "constructor"
    },
    {
      "inputs": [
        {
          "internalType": "address",
          "name": "owner",
          "type": "address"
        }
      ],
      "name": "OwnableInvalidOwner",
      "type": "error"
    },
    {
      "inputs": [
        {
          "internalType": "address",
          "name": "account",
          "type": "address"
        }
      ],
      "name": "OwnableUnauthorizedAccount",
      "type": "error"
    },
    {
      "anonymous": false,
      "inputs": [
        {
          "indexed": true,
          "internalType": "address",
          "name": "previousOwner",
          "type": "address"
        },
        {
          "indexed": true,
          "internalType": "address",
          "name": "newOwner",
          "type": "address"
        }
      ],
      "name": "OwnershipTransferred",
      "type": "event"
    },
    {
      "anonymous": false,
      "inputs": [
        {
          "indexed": true,
          "internalType": "address",
          "name": "user",
          "type": "address"
        },
        {
          "indexed": false,
          "internalType": "uint256",
          "name": "amountIn",
          "type": "uint256"
        },
        {
          "indexed": false,
          "internalType": "uint256",
          "name": "amountOut",
          "type": "uint256"
        },
        {
          "indexed": false,
          "internalType": "uint256",
          "name": "timestamp",
          "type": "uint256"
        }
      ],
      "name": "SwapExecuted",
      "type": "event"
    },
    {
      "inputs": [],
      "name": "eurc",
      "outputs": [
        {
          "internalType": "contract IERC20",
          "name": "",
          "type": "address"
        }
      ],
      "stateMutability": "view",
      "type": "function"
    },
    {
      "inputs": [],
      "name": "eurcBalance",
      "outputs": [
        {
          "internalType": "uint256",
          "name": "",
          "type": "uint256"
        }
      ],
      "stateMutability": "view",
      "type": "function"
    },
    {
      "inputs": [],
      "name": "owner",
      "outputs": [
        {
          "internalType": "address",
          "name": "",
          "type": "address"
        }
      ],
      "stateMutability": "view",
      "type": "function"
    },
    {
      "inputs": [],
      "name": "renounceOwnership",
      "outputs": [],
      "stateMutability": "nonpayable",
      "type": "function"
    },
    {
      "inputs": [
        {
          "internalType": "uint256",
          "name": "amount",
          "type": "uint256"
        }
      ],
      "name": "swap",
      "outputs": [],
      "stateMutability": "nonpayable",
      "type": "function"
    },
    {
      "inputs": [
        {
          "internalType": "address",
          "name": "newOwner",
          "type": "address"
        }
      ],
      "name": "transferOwnership",
      "outputs": [],
      "stateMutability": "nonpayable",
      "type": "function"
    },
    {
      "inputs": [
        {
          "internalType": "uint256",
          "name": "amount",
          "type": "uint256"
        }
      ],
      "name": "withdrawEURC",
      "outputs": [],
      "stateMutability": "nonpayable",
      "type": "function"
    }
  ],
  "bytecode": "0x60a060405234801561000f575f5ffd5b5060405161066538038061066583398101604081905261002e916100bd565b338061005357604051631e4fbdf760e01b81525f600482015260240160405180910390fd5b61005c8161006e565b506001600160a01b03166080526100ea565b5f80546001600160a01b038381166001600160a01b0319831681178455604051919092169283917f8be0079c531659141344cd1fd0a4f28419497f9722a3daafe3b4186f6b6457e09190a35050565b5f602082840312156100cd575f5ffd5b81516001600160a01b03811681146100e3575f5ffd5b9392505050565b60805161054f6101165f395f8181608301528181610155015281816102340152610337015261054f5ff3fe608060405234801561000f575f5ffd5b506004361061007a575f3560e01c80638da5cb5b116100585780638da5cb5b146100e257806394b918de146100f2578063d8de4d0114610105578063f2fde38b14610118575f5ffd5b806308d781ec1461007e578063715018a6146100c25780638679b098146100cc575b5f5ffd5b6100a57f000000000000000000000000000000000000000000000000000000000000000081565b6040516001600160a01b0390911681526020015b60405180910390f35b6100ca61012b565b005b6100d461013e565b6040519081526020016100b9565b5f546001600160a01b03166100a5565b6100ca61010036600461049f565b6101cb565b6100ca61011336600461049f565b61032d565b6100ca6101263660046104b6565b6103e7565b610133610424565b61013c5f610450565b565b6040516370a0823160e01b81523060048201525f907f00000000000000000000000000000000000000000000000000000000000000006001600160a01b0316906370a0823190602401602060405180830381865afa1580156101a2573d5f5f3e3d5ffd5b505050506040513d601f19601f820116820180604052508101906101c691906104e3565b905090565b5f81116102105760405162461bcd60e51b815260206004820152600e60248201526d125b9d985b1a5908185b5bdd5b9d60921b60448201526064015b60405180910390fd5b6040516323b872dd60e01b8152336004820152306024820152604481018290525f907f00000000000000000000000000000000000000000000000000000000000000006001600160a01b0316906323b872dd906064016020604051808303815f875af1158015610282573d5f5f3e3d5ffd5b505050506040513d601f19601f820116820180604052508101906102a691906104fa565b9050806102e75760405162461bcd60e51b815260206004820152600f60248201526e151c985b9cd9995c8819985a5b1959608a1b6044820152606401610207565b60408051838152602081018490524281830152905133917fe3a277e9dc82afe4d40533f81d7299e0d9ca6d4ed93e2bbe5d94a93eaf0a5b5f919081900360600190a25050565b610335610424565b7f00000000000000000000000000000000000000000000000000000000000000006001600160a01b031663a9059cbb6103755f546001600160a01b031690565b6040516001600160e01b031960e084901b1681526001600160a01b039091166004820152602481018490526044016020604051808303815f875af11580156103bf573d5f5f3e3d5ffd5b505050506040513d601f19601f820116820180604052508101906103e391906104fa565b5050565b6103ef610424565b6001600160a01b03811661041857604051631e4fbdf760e01b81525f6004820152602401610207565b61042181610450565b50565b5f546001600160a01b0316331461013c5760405163118cdaa760e01b8152336004820152602401610207565b5f80546001600160a01b038381166001600160a01b0319831681178455604051919092169283917f8be0079c531659141344cd1fd0a4f28419497f9722a3daafe3b4186f6b6457e09190a35050565b5f602082840312156104af575f5ffd5b5035919050565b5f602082840312156104c6575f5ffd5b81356001600160a01b03811681146104dc575f5ffd5b9392505050565b5f602082840312156104f3575f5ffd5b5051919050565b5f6020828403121561050a575f5ffd5b815180151581146104dc575f5ffdfea2646970667358221220746c70162aad0544f1a2d6a7beff8e36d1dd1f3bf5a77ebcc16a55208d02fdce64736f6c634300081c0033",
  "linkReferences": {},
  "deployedLinkReferences": {},
  "immutableReferences": {
    "264": [
      {
        "length": 32,
        "start": 131
      },
      {
        "length": 32,
        "start": 341
      },
      {
        "length": 32,
        "start": 564
      },
      {
        "length": 32,
        "start": 823
      }
    ]
  },
  "inputSourceName": "project/contracts/ArcRouter.sol",
  "buildInfoId": "solc-0_8_28-5cd10fa30140d1b79e7ee38ac501e23d92e08737"
}